:020000040800F2
:10000000D80400209D010008A5010008A7010008F0
:10001000A9010008AB010008AD01000800000000C4
:10002000000000000000000000000000AF01000818
:10003000B101000800000000B301000865100008CD
:10004000B7010008B7010008B7010008B7010008B0
:10005000B7010008B7010008B7010008B7010008A0
:10006000B7010008B7010008B7010008B701000890
:10007000B7010008B7010008B7010008B701000880
:10008000B7010008B7010008B7010008B701000870
:10009000B7010008B7010008B7010008B701000860
:1000A000B7010008B7010008B7010008B701000850
:1000B000B7010008B7010008B7010008B701000840
:1000C000B7010008B7010008B7010008B701000830
:1000D000B7010008C7100008B7010008B701000801
:1000E000B7010008B7010008B7010008B701000810
:1000F000B7010008B7010008B7010008B701000800
:10010000B7010008B7010008B7010008B7010008EF
:10011000B7010008B7010008B7010008B7010008DF
:10012000B7010008B7010008B7010008B7010008CF
:10013000B7010008B7010008B7010008B7010008BF
:10014000B7010008B7010008B7010008B7010008AF
:10015000B7010008B7010008B7010008B70100089F
:10016000B7010008B7010008B7010008B70100088F
:10017000B7010008B7010008B7010008B70100087F
:10018000B7010008B7010008DFF80CD003F0A8FAA7
:100190000048004799060008D80400200648804718
:1001A00006480047FEE7FEE7FEE7FEE7FEE7FEE75C
:1001B000FEE7FEE7FEE7FEE7AB3500088901000831
:1001C00000EB400202EB001241F2BA33A3EB420211
:1001D000FC4B1A80FC4A1180704700EB400202EB96
:1001E000001241F2483303EB4202F84B1A80F84AFE
:1001F0001180704700EB400202EB001241F2223303
:10020000A3EB4202F34B1A80F34A1180704700EBD4
:10021000400202EB001241F29E4303EB4202EF4B1D
:100220001A80EF4A1180704700EB400202EB001287
:1002300041F2BA3303EB4202EA4B1A80EA4A1180D8
:10024000704700EB400202EB001241F2FC23A3EBEB
:100250004202E64B1A80E64A1180704700EB4002EA
:1002600002EB001241F2BA3303EB4202E14B1A8077
:10027000E14A1180704700EB400202EB001241F2AC
:10028000BA33A3EB4202DD4B1A80DD4A118070477E
:100290004AF21041484300BF0100A0F10100FBD128
:1002A000704700B504212820FFF7A4FF04216FF058
:1002B0002700FFF7C6FF4FF4FA70FFF7E9FF0421AC
:1002C0001E20FFF7D8FF04216FF01D00FFF7C6FFC7
:1002D00004216FF01D00FFF7B4FF04211E20FFF77B
:1002E000A3FF04216FF01D00FFF791FF04211E20E2
:1002F000FFF780FF04211E20FFF76FFF04216FF03E
:100300001D00FFF75DFF4FF47A70FFF7C1FF8FE02C
:1003100004213220FFF76EFF04213220FFF784FF13
:1003200004210020FFF7A7FF04210020FFF796FF1C
:1003300004210020FFF751FF04210020FFF740FFB8
:100340004FF4FA70FFF7A4FF04211E20FFF75FFFB0
:1003500004216FF01D00FFF74DFF04211E20FFF761
:1003600070FF04216FF01D00FFF75EFF4FF4FA707D
:10037000FFF78EFF04216FF01D00FFF77CFF0421C3
:100380001E20FFF76BFF04216FF01D00FFF725FF14
:1003900004211E20FFF714FF4FF47A70FFF778FF57
:1003A00004213220FFF75AFF04213220FFF708FF13
:1003B00004210020FFF72BFF04210020FFF71AFF84
:1003C00004210020FFF73DFF04210020FFF72CFF50
:1003D0004FF4FA70FFF75CFF04211E20FFF74BFF7C
:1003E00004216FF01D00FFF739FF04211E20FFF7E5
:1003F000F4FE04216FF01D00FFF7E2FE4FF4FA70E7
:10040000FFF746FF04216FF01D00FFF700FF0421F6
:100410001E20FFF7EFFE04216FF01D00FFF711FF14
:1004200004211E20FFF700FF4FF47A70FFF730FF22
:10043000744890F9000014283FF76AAF04210020A7
:10044000FFF719FF04210020FFF708FF0421002017
:10045000FFF7F7FE04210020FFF7E6FE042100204D
:10046000FFF7D5FE04210020FFF7C4FE0421002081
:10047000FFF7B3FE04210020FFF7A2FE00BD00B588
:10048000604890F90000142801DDFFF70AFF00BD65
:1004900000B55D48007888B904216FF03100FFF79E
:1004A000B6FE04213220FFF7A5FE04216FF03100D3
:1004B000FFF793FE04213220FFF782FE52480078B6
:1004C00032280FD104210020FFF7A1FE04210020D3
:1004D000FFF790FE04210020FFF77FFE042100209B
:1004E000FFF76EFE00BD00B54848007888B90421CA
:1004F0006FF03100FFF7BFFE04213220FFF7AEFEA0
:1005000004216FF03100FFF79CFE04213220FFF739
:100510008BFE3E48007832280FD104210020FFF7DF
:10052000AAFE04210020FFF799FE04210020FFF716
:1005300088FE04210020FFF777FE00BD00B5344897
:100540000088012802D0022806D102E0FFF7CBFF85
:1005500002E0FFF79DFF00BF00BF00BD00EB4002BF
:1005600002EB001241F25243A3EB4202294B1A80E4
:10057000294A1180704700EB400202EB001241F261
:100580001053A3EB4202254B1A80254A1180704775
:1005900000EB400202EB001241F22C43A3EB4202BB
:1005A000204B1A80204A1180704700EB400202EB7A
:1005B000001241F22C43A3EB42021C4B1A801C4A4E
:1005C000118070476000002062000020640000205D
:1005D0006600002054000020560000205800002033
:1005E0005A000020480000204A0000204C00002053
:1005F0004E0000203C0000203E0000204000002073
:100600004200002032000020750000206F00002012
:1006100036000020680000206A0000205C000020F6
:100620005E00002050000020520000204400002006
:100630004600002000B502210020FFF7B6FF02218E
:100640000020FFF7A5FF02210020FFF794FF022101
:100650000020FFF783FF02210020FFF70CFE02219C
:100660000020FFF7EEFD02210020FFF7D0FD022160
:100670000020FFF7B2FD02210020FFF7EFFD02216D
:100680000020FFF7D1FD02210020FFF7B3FD02217A
:100690000020FFF795FD00BD08B502F071FC02F0E7
:1006A000F2FC4FF461403823FE4A07210090FE48D7
:1006B00002F010FE02F08EFEFFF7BCFFFB48006860
:1006C00042F21072B0FBF2F1481EB0F1807F01D30C
:1006D00001201BE0481E4FF0E022506150170F220E
:1006E000002807DA13071D0EF14B00F00F04241F3A
:1006F0001D5503E013071C0EEE4B1C5400BF0020D9
:100700004FF0E022906107201061002008B100BF87
:10071000FEE703E0FFF712FFFFF7B1FEFAE7E64856
:100720000088704710B50446FFF7F9FFE3490988D0
:10073000214489B2884211D1FFF7F1FFDF490880D7
:100740000421DF480078404240B2FFF72EFF042129
:10075000DB480078404240B2FFF70DFF10BD10B5F6
:100760000446FFF7DCFFD7490988214489B2884253
:100770007DD1FFF7D4FFD3490880D34802F0A2F817
:1007800000B2A0F59850BA38262190FBF1F040B2A3
:10079000CE490870CC4802F098F800B241F2BA3164
:1007A000081A262190FBF1F040B2C9490870C648EA
:1007B00002F08EF800B241F22C41081A262190FB7B
:1007C000F1F040B2C34908704FF0804002F07DF86C
:1007D00000B2A0F59850BA38262190FBF1F040B253
:1007E000BD4908704FF0804002F072F800B241F24B
:1007F000FC21081A262190FBF1F040B2B74908709D
:100800004FF0804002F067F800B241F22C41081A24
:10081000262190FBF1F040B2B1490870B14802F0D6
:1008200051F800B241F22231081A262190FBF1F072
:1008300040B2AD490870AB4802F047F800B2A0F5ED
:10084000A0509E38262190FBF1F040B2A7490870D5
:10085000A44802F03DF800B241F21051081A2621D6
:1008600090FBF1F040B2A2490870A24800E025E0F8
:1008700002F028F800B241F2BA31081A262190FBA2
:10088000F1F040B29C4908709A4802F01EF800B29C
:10089000A0F598504838262190FBF1F040B29749D6
:1008A0000870944802F014F800B241F25241081A5C
:1008B000262190FBF1F040B29149087010BD10B5AF
:1008C0000446FFF72CFF8F490988214489B28842EA
:1008D0003AD1FFF724FF8B490880864801F0F8FFE2
:1008E00089490860894800880968884213D9864880
:1008F0000068401C844908606F4800888449098862
:1009000090FBF1F201FB1200F0B97F4801687948D1
:1009100001F075FD18E07D4800887B490968884230
:1009200012D279480068401E774908606248008802
:100930007749098890FBF1F201FB120020B9724857
:1009400001686C4801F05BFD10BD10B50446FFF76F
:10095000E6FE70490988214489B288423AD1FFF7FE
:10096000DEFE6C490880634801F0AFFF664908600D
:10097000694800880968884213D963480068401CA8
:10098000614908604C4800886449098890FBF1F28D
:1009900001FB1200F0B95C480168564801F02DFDDA
:1009A00018E05D48008858490968884212D25648C4
:1009B0000068401E544908603F480088574909882C
:1009C00090FBF1F201FB120020B94F480168494841
:1009D00001F013FD10BD10B50446FFF7A0FE50490D
:1009E0000988214489B288423AD1FFF798FE4C49E0
:1009F0000880404801F066FF434908604948008884
:100A00000968884213D940480068401C3E49086084
:100A1000294800884449098890FBF1F201FB120043
:100A2000F0B939480168334801F0E5FC18E03D4869
:100A3000008835490968884212D233480068401E50
:100A4000314908601C4800883749098890FBF1F259
:100A500001FB120020B92C480168264801F0CBFCAC
:100A600010BD10B50446FFF75AFE304909882144ED
:100A700089B288426BD1FFF752FE2C490880194891
:100A800001F026FF2049086029480088096888424B
:100A90005ED91D480068401C1B4908600648008854
:100AA000244949E09C00002020000020880000200C
:100AB00018ED00E000E400E0020000200600002045
:100AC0003000002004000020000C00406C000020DA
:100AD0006D0000206E0000206F00002070000020DC
:100AE000710000200004004072000020730000200C
:100AF00074000020000800407500002076000020EF
:100B0000770000201E000020380000206800002030
:100B10006A0000201C000020640000206600002005
:100B20001A00002060000020620000201800002051
:100B30005C0000205E000020098890FBF1F201FBC0
:100B4000120020B9FC480168FC4801F058FC18E08C
:100B5000FB480088F8490968884212D2F6480068C4
:100B6000401EF5490860F7480088F749098890FB5E
:100B7000F1F201FB120020B9EF480168EF4801F0E3
:100B80003EFC10BD10B50446FFF7C9FDEF490988CA
:100B9000214489B288423AD1FFF7C1FDEB49088070
:100BA000E64801F092FEE4490860E94800880968D7
:100BB000884213D9E0480068401CDF490860E148DA
:100BC0000088E449098890FBF1F201FB1200F0B9BA
:100BD000D9480168D94801F010FC18E0DC480088C9
:100BE000D5490968884212D2D3480068401ED249CC
:100BF0000860D4480088D749098890FBF1F201FBCE
:100C0000120020B9CC480168CC4801F0F6FB10BDB9
:100C100010B50446FFF783FDCF490988214489B206
:100C200088423AD1FFF77BFDCB490880C34801F0E9
:100C300049FEC1490860C94800880968884213D93B
:100C4000BD480068401CBC490860BE480088C449D3
:100C5000098890FBF1F201FB1200F0B9B648016877
:100C6000B64801F0C8FB18E0BC480088B2490968E2
:100C7000884212D2B0480068401EAF490860B148AF
:100C80000088B749098890FBF1F201FB120020B9F6
:100C9000A9480168A94801F0AEFB10BD10B5044693
:100CA000FFF73DFDAF490988214489B288423DD113
:100CB000FFF735FDAB4908804FF0804001F00BFE97
:100CC0009D490860A84800880968884214D99A4854
:100CD0000068401C984908609A480088A349098820
:100CE00090FBF1F201FB120000BB934801684FF04A
:100CF000804001F086FB19E09B4800888E49096816
:100D0000884213D28C480068401E8B4908608D4889
:100D100000889649098890FBF1F201FB120028B97E
:100D2000854801684FF0804001F06BFB10BD10B5A5
:100D30000446FFF7F4FC8E490988214489B28842B1
:100D40003DD1FFF7ECFC8A4908804FF0804001F06C
:100D5000BFFD79490860874800880968884214D92E
:100D600075480068401C74490860764800888249CC
:100D7000098890FBF1F201FB120000BB6E4801688C
:100D80004FF0804001F03BFB19E07A4800886A4947
:100D90000968884213D268480068401E66490860A6
:100DA000684800887449098890FBF1F201FB120041
:100DB00028B9614801684FF0804001F020FB10BD68
:100DC00010B50446FFF7ABFC6C490988214489B291
:100DD00088423DD1FFF7A3FC684908804FF080406E
:100DE00001F073FD5449086065480088096888422D
:100DF00014D951480068401C4F4908605148008888
:100E00006049098890FBF1F201FB120000BB4A48DF
:100E100001684FF0804001F0F0FA19E0584800886E
:100E200045490968884213D243480068401E424938
:100E30000860444800885349098890FBF1F201FB9F
:100E4000120028B93C4801684FF0804001F0D5FA03
:100E500010BD10B50446FFF762FC4B4909882144D8
:100E600089B288423AD1FFF75AFC4749088047487F
:100E700001F02EFD30490860454800880968884225
:100E800013D92D480068401C2B4908602D48008864
:100E90004049098890FBF1F201FB1200F0B92648A5
:100EA00001683A4801F0ABFA18E039480088224955
:100EB0000968884212D220480068401E1E49086016
:100EC000204800883349098890FBF1F201FB1200A9
:100ED00020B9194801682D4801F091FA10BD10B5EC
:100EE0000446FFF71CFC2C490988214489B288423A
:100EF00071D1FFF714FC28490880244801F0E5FC73
:100F00000D49086025480088096888424AD90A487E
:100F10000068401C084908600A4800882049098880
:100F200090FBF1F201FB120028B903480168174851
:100F300001F063FA4FE04EE038000020000400406A
:100F40005C000020020000205E000020160000204F
:100F5000580000205A0000201400002054000020F7
:100F600056000020120000205000002052000020F7
:100F7000100000204C0000204E0000200E00002039
:100F8000480000204A0000200C000020000C004017
:100F900044000020460000200A00002040000020FD
:100FA000420000209648008896490968884212D27B
:100FB00094480068401E934908609348008893490C
:100FC000098890FBF1F201FB120020B98D480168FD
:100FD0008F4801F012FA10BD10B50446FFF79FFBD1
:100FE0008C490988214489B288423AD1FFF797FB9E
:100FF00088490880864801F065FC82490860864877
:1010000000880968884213D97E480068401C7D49E1
:1010100008607D4800888149098890FBF1F201FB56
:101020001200F0B977480168794801F0E4F918E056
:101030007948008873490968884212D2714800686B
:10104000401E70490860704800887449098890FB08
:10105000F1F201FB120020B96A4801686C4801F006
:10106000CAF910BD10B568480088401C6649088060
:101070000120FFF7B1FF0120FFF731FF0120FFF74B
:10108000E8FE0120FFF79CFE0120FFF750FE012043
:10109000FFF704FE0120FFF7BBFD0120FFF772FD03
:1010A0000120FFF7DEFC0120FFF795FC0120FFF790
:1010B0004CFC0120FFF703FC0A20FFF750FB0A203D
:1010C000FFF730FB10BD10B540F22551544801F038
:1010D00010FF002871D0524801F049FE51490870B4
:1010E000084600785049514A127888544F48007891
:1010F000401C4E49087008460078382801D100206D
:10110000087000204A49087074E047484849097847
:10111000405CFF2869D1444945480078801D085C3F
:10112000FE2862D142480078801C01444148096889
:1011300001603D493E480078401C085CE0380728C3
:1011400052D2DFE800F0040E19242F3B4600394844
:1011500090ED000ABCEEC00A10EE100A3649088075
:1011600042E0344890ED000ABDEEC00A10EE100ACD
:1011700040B23249087037E02E4890ED000ABDEECB
:10118000C00A10EE100A40B22D4908702CE0294820
:1011900090ED000ABDEEC00A10EE100A40B22949D7
:1011A000087021E0234890ED000ABDEEC00A10EE61
:1011B000100A40B22449087016E01FE01D4890ED67
:1011C000000ABDEEC00A10EE100A40B21F490870B6
:1011D0000AE0184890ED000ABDEEC00A10EE100AB1
:1011E00040B21B49087000BF00BF11480078401C86
:1011F0000F4908700E480078322886DD10BD704710
:1012000040000020380000200200002042000020A2
:10121000000C0040080000203C0000203E000020A0
:1012200000100140270000209C000020000000204A
:10123000280000202C000020360000203000002074
:101240003100002032000020330000203400002054
:101250003500002033490143334A1160704770B5AF
:10126000002100230F22C47824B32F4C246804F4F7
:10127000E064C4F5E064C4F30721C1F10404E3B2FF
:101280000A4144789C40E1B28478144021430C0721
:10129000210E264C05786155047804F01F050124C1
:1012A000AC4005786D114FF0E02606EB8505C5F8DA
:1012B000004109E0047804F01F040125A5401C4CFE
:1012C0000678761144F8265070BD1A4A0A40024347
:1012D000154B1B1F1A60704739B1134A121D126853
:1012E0000243114B1B1D1A6006E00F4A121D1268C3
:1012F00082430D4B1B1D1A607047042808D14FF024
:10130000E021096941F004014FF0E022116107E09A
:101310004FF0E021096921F004014FF0E022116152
:10132000704700000000FA050CED00E000E400E06A
:1013300080E100E080FFFF1F016821F001010160F2
:101340000021016041608160C16001612121416132
:10135000DA49884204D13D21D84A103A91608CE0A4
:10136000D6491831884205D14FF47461D34A103AF6
:10137000916082E0D1493031884205D14FF4741137
:10138000CE4A103A916078E0CC494831884205D184
:101390004FF07461C94A103A91606EE0C7496031FC
:1013A000884204D1C649C54A103AD16065E0C349B4
:1013B0007831884204D1C349C04A103AD1605CE018
:1013C000BE499031884204D1BF49BC4A103AD1602D
:1013D00053E0BA49A831884205D14FF03D51B74A90
:1013E000103AD16049E0B949884204D13D21B74A59
:1013F000083A116041E0B5491831884205D14FF4EF
:101400007461B24A083A116037E0B049303188421D
:1014100005D14FF47411AD4A083A11602DE0AB4983
:101420004831884205D14FF07461A84A083A1160EA
:1014300023E0A6496031884204D1A149A34A121F82
:1014400011601AE0A1497831884204D19D499F4A30
:10145000121F116011E09D499031884204D19A49D0
:101460009A4A121F116008E09849A831884204D1B5
:101470004FF03D51954A121F1160704710B5002280
:101480000268934B1A40CC680B6823434C69234392
:101490008C692343CC6923430C6A23434C6A23435E
:1014A0008C6A23434C6B23438C6B23431A430260A7
:1014B000426922F00702D1E90B3423431A43426107
:1014C0000B6943604B6883608B68C36010BD00216B
:1014D000016041608160C160016141618161C16100
:1014E000016241628162C16201634163816370474D
:1014F00021B1026842F00102026003E0026822F0BA
:1015000001020260704721B1026842F400420260A9
:1015100003E0026822F400420260704721B10268D1
:1015200042F02002026003E0026822F02002026022
:101530007047416070470146486880B2704722B1E9
:10154000036843F40023036003E0036823F40023EB
:1015500003600161704721B1026842F48022026099
:1015600003E0026822F48022026070470AB1016140
:1015700000E0C1607047014600200A6812F4002FA5
:1015800001D0012000E000207047014600200A68D9
:1015900012F0010F01D0012000E000207047014649
:1015A00000204A6902F03800704730B503460A4609
:1015B00000200024454DAB4202D24049103901E0E1
:1015C0004249103912F0005F01D04C6800E00C680D
:1015D000404D2C40144201D0012000E0002030BDDD
:1015E00002463A4B9A4202D23448103801E037485A
:1015F000103811F0005F03D0364B0B40C36002E09F
:10160000344B0B408360704710B511F0800F09D048
:1016100022B1436943F08003436103E0436923F04F
:101620008003436180290BD02AB1036801F01E04B6
:101630002343036004E0036801F01E04A343036036
:1016400010BD70B502460020002400251F4EB24296
:1016500002D21A4B103B01E01C4B103B1E4E314294
:1016600006D01E2606EAD124166806EA040502E022
:10167000566906F0800511F0005F01D05C6800E05B
:101680001C68144E34400C4202D00DB1012000E021
:10169000002070BD02460D4B9A4202D20748103816
:1016A00001E00A48103811F0005F03D0094B0B40ED
:1016B000C36002E0074B0B4083607047106002403C
:1016C0003D000020400F002000003D20106402403B
:1016D0003F801CF07D0F7D0F3C0F3C0F10B5044682
:1016E0008C48844208D10121084600F000FB00210B
:1016F000012000F0FCFA5EE08748844208D1012115
:10170000022000F0F4FA0021022000F0F0FA52E08A
:101710008248844208D10121042000F0E8FA002127
:10172000042000F0E4FA46E07D48844208D101211B
:10173000082000F0DCFA0021082000F0D8FA3AE096
:101740007848844208D10121102000F0D0FA00210D
:10175000102000F0CCFA2EE07348844208D1012119
:10176000202000F0C4FA0021202000F0C0FA22E07E
:101770006E48844208D10121402000F0B8FA0021CF
:10178000402000F0B4FA16E06948844208D10121F3
:10179000802000F0ACFA0021802000F0A8FA0AE0D6
:1017A0006448844207D10121801500F0A0FA00218D
:1017B000A01500F09CFA10BDF0B50A4600210023E8
:1017C000002400BF3DE0012505FA01F3156805EA94
:1017D00003049C4234D105684F000326BE40B54344
:1017E000056015794E00B5400668354305601579EA
:1017F000012D02D01579022D16D185684F000326E0
:10180000BE40B543856055794E00B5408668354386
:101810008560456801268E40B543456045689679E8
:101820008E40B6B235434560C5684F000326BE40C2
:10183000B543C560D5794E00B540C6683543C5602F
:10184000491C1029BFD3F0BD4FF6FF710160002184
:10185000017141718171C171704708B54FF48032D7
:101860000092009A0A430092009AC261C161009AF4
:10187000C261C2690092C269009208BD024600209E
:1018800013690B4201D0012000E00020704701469F
:10189000086980B270470246002053690B4201D0AC
:1018A000012000E0002070470146486980B270477F
:1018B00001837047418370470AB1018300E041838F
:1018C00070474161704742694A4042617047F0B5D4
:1018D000002300244D07ED0E02FA05F3CE1000F1AF
:1018E000200555F826504E07F70E0F26BE40B5438B
:1018F000CF1000F1200646F82750CE1000F1200549
:1019000055F8265045EA0304CE1000F1200545F8AD
:101910002640F0BD000002400004024000080240E2
:10192000000C024000100240001402400018024067
:10193000001C024000200240FA48006840F001000C
:10194000F84908600020F74908310860F548006848
:10195000F5490840F3490860F448091D0860081F6C
:10196000006820F48020091F08600020ED490C3138
:10197000086070470021EB4A921C117011460870F4
:10198000704710B501460022002300204A11012AA9
:1019900002D1E44C236808E0022A03D1E14C703400
:1019A000236802E0DF4C7434236801F01F02012435
:1019B00094401C4201D0012000E0002010BD38B549
:1019C000002000900024002500BF3120FFF7D9FF40
:1019D00005460098401C00900098B0F5C06F01D0FB
:1019E000002DF2D03120FFF7CCFF08B1012400E038
:1019F0000024204638BD01460020CA4A106820F065
:101A0000F80040EAC10010607047C949086070479B
:101A10000021C44A703211701170012802D00428CC
:101A20000AD104E00121BF4A7032117005E005219E
:101A3000BC4A7032117000E000BF00BF7047BD4962
:101A40000860704770B5049C41EA82150126C6EB18
:101A5000530645EA0645054345EA0465B14E361D81
:101A6000356070BDB24908667047820142EA017272
:101A7000AC4B84331A607047AD4988667047AC49F7
:101A8000C864704702460020A64B0833186820F04F
:101A9000EC6042EA01031843A24B08331860704718
:101AA000024600209F4B0833186820F0784042EA35
:101AB000010318439B4B0833186070470146002010
:101AC000984A0832106820F00300084310607047FD
:101AD00094480830006800F00C0070470146002070
:101AE000904A0832106820F0F000084310607047F8
:101AF000014600208B4A0832106820F4E050084369
:101B00001060704701460020864A0832106820F4B1
:101B1000604040EAC10010607047F0B5002100222B
:101B200000240225002602237E4F08373F6807F075
:101B30000C0121B1042905D0082937D105E07E4FD9
:101B4000076036E07D4F076033E0764F3F1D3F680A
:101B5000C7F38056734F3F1D3F6807F03F036EB1D8
:101B6000764FB7FBF3F7DFF8BCC10CF1040CDCF8DF
:101B700000C0CCF3881C07FB0CF40CE06E4FB7FBE5
:101B8000F3F7DFF8A0C10CF1040CDCF800C0CCF3D3
:101B9000881C07FB0CF4634F3F1D3F68C7F30147E8
:101BA0007F1C7D00B4FBF5F7076002E0624F076021
:101BB00000BF00BF5B4F08373F6807F0F00109091D
:101BC0005F4F7A5C0768D7404760564F08373F68D9
:101BD00007F4E051890A5A4F7A5C4768D74087601A
:101BE000504F08373F6807F46041490B544F7A5C07
:101BF0004768D740C760F0BD002100F44072B2F5DD
:101C0000407F0AD1474A0832116821F4F8114D4A41
:101C100002401143434A08321160424A703212684E
:101C2000C0F30B031A433F4B70331A6070474149AE
:101C30004439086070473F4940390860704742495D
:101C40000860704739B1374A303212680243354B69
:101C500030331A6006E0334A303212688243314B27
:101C600030331A60704739B12E4A34321268024359
:101C70002C4B34331A6006E02A4A3432126882430D
:101C8000284B34331A60704739B1264A383212680B
:101C90000243244B38331A6006E0224A3832126875
:101CA0008243204B38331A60704739B11D4A4032A5
:101CB000126802431B4B40331A6006E0194A403257
:101CC00012688243174B40331A60704739B1154A86
:101CD000443212680243134B44331A6006E0114A3F
:101CE0004432126882430F4B44331A60704739B153
:101CF0000C4A1032126802430A4B10331A6006E095
:101D0000084A103212688243064B10331A6070473B
:101D1000E1B1044A143212680243024B14331A60D0
:101D200019E0000000380240FFFFF6FE10300024EA
:101D300000004742800E47420024F40000127A005F
:101D400078000020FFFCFF0F5C0147425B4A1268ED
:101D500082435A4B1A60704739B1584A121D1268B3
:101D60000243564B1B1D1A6006E0544A121D1268AE
:101D70008243524B1B1D1A60704739B14F4A0C32D7
:101D8000126802434D4B0C331A6006E04B4A0C328A
:101D900012688243494B0C331A60704739B1474A85
:101DA000103212680243454B10331A6006E0434A72
:101DB000103212688243414B10331A60704739B1B8
:101DC0003E4A3C32126802433C4B3C331A6006E008
:101DD0003A4A3C3212688243384B3C331A607047AF
:101DE00039B1364A403212680243344B40331A60EC
:101DF00006E0324A403212688243304B40331A6068
:101E0000704739B12D4A4432126802432B4B443398
:101E10001A6006E0294A443212688243274B443351
:101E20001A60704739B1254A4C3212680243234B7D
:101E30004C331A6006E0214A4C32126882431F4B31
:101E40004C331A60704739B11C4A50321268024351
:101E50001A4B50331A6006E0184A50321268824317
:101E6000164B50331A60704739B1144AD21F12789A
:101E70000243124BDB1F1A7006E0104AD21F127881
:101E800082430E4BDB1F1A7070470C4860300068AD
:101E900040F08070094960310860704701460020B9
:101EA000064A083A12680A4201D0012000E00020E8
:101EB00070470249891F08707047000014380240BB
:101EC00010B50446FE48844208D101210846FFF7B8
:101ED00065FF00210120FFF761FF9DE0B4F1804F15
:101EE00008D101210846FFF748FF00210120FFF734
:101EF00044FF91E0F348844208D101210220FFF71A
:101F00003CFF00210220FFF738FF85E0EE488442C5
:101F100008D101210420FFF730FF00210420FFF742
:101F20002CFF79E0E948844208D101210820FFF71D
:101F300024FF00210820FFF720FF6DE0E4488442E1
:101F400008D101211020FFF718FF00211020FFF712
:101F500014FF61E0DF48844208D101212020FFF70F
:101F60000CFF00212020FFF708FF55E0DA488442EB
:101F700008D101210220FFF711FF00210220FFF705
:101F80000DFF49E0D548844209D101210804FFF73B
:101F900005FF00214FF48030FFF700FF3CE0D04800
:101FA000844209D101214804FFF7F8FE00214FF4D3
:101FB0000030FFF7F3FE2FE0CA48844209D1012127
:101FC0008804FFF7EBFE00214FF48020FFF7E6FEC8
:101FD00022E0C548844208D101214020FFF7CDFE10
:101FE00000214020FFF7C9FE16E0C048844208D116
:101FF00001218020FFF7C1FE00218020FFF7BDFEF8
:102000000AE0BB48844207D101218015FFF7B5FEE5
:102010000021A015FFF7B1FE10BD00220288A84BD9
:1020200098420ED0AC4B98420BD0B0F1804F08D004
:10203000A44B984205D0A44B984202D0A34B98429F
:1020400004D14FF68F731A404B881A43A04B984225
:1020500007D0A04B984204D04FF6FF431A400B899B
:102060001A4302804B68C3620B880385944B9842E5
:1020700002D0994B984201D18B7A03860123838247
:1020800070474FF0FF3141600021018001814180A4
:10209000817270470185828270470A46002101885B
:1020A0004FF68F73194011430180704741627047AA
:1020B000C16270470146486A70470146088D704703
:1020C00021B1028842F00202028004E002884FF649
:1020D000FD731A400280704721B1028842F0040269
:1020E000028004E002884FF6FB731A4002807047BA
:1020F00021B1028842F08002028004E002884FF69B
:102100007F731A400280704702884FF6F7731A40B7
:10211000028002880A430280704702884FF6FF431C
:102120001A40028002880A430280704721B1028867
:1021300042F00102028004E002884FF6FE731A406A
:102140000280704770B5002400220023058C4FF6F2
:10215000FE7635400584028C8388048B4FF68F759C
:102160002C40B51E2C400D882C43751E2A408D89AD
:102170002A434D882A43524DA84202D0564DA842C8
:1021800013D14FF6F7752A40CD892A434FF6FB75D8
:102190002A408D882A434FF6FF652B404FF6FF55A6
:1021A0002B400D8A2B434D8A2B43838004838D68FB
:1021B0004563028470BD70B5002400220023058CA5
:1021C0004FF6EF7635400584028C8388048B48F601
:1021D000FF752C404FF6FF452C400D884FF6FF76DB
:1021E00006EA05252C434FF6DF752A408D8906EA5D
:1021F00005152A434D8806EA05152A43304DA842A5
:1022000002D0354DA8421DD14FF67F752A40CD89A9
:102210004FF6FF7606EA05152A434FF6BF752A40AA
:102220008D8806EA05152A434FF6FF352B404FF2FD
:10223000FF752B400D8A06EA85052B434D8A06EA79
:1022400085052B43838004838D688563028470BD7C
:1022500070B5002400220023058C4FF6FF66354040
:102260000584028C8388848B4FF68F752C404FF643
:10227000FC752C400D882C434FF6FF552A408D8964
:102280004FF6FF7606EA05252A434D8806EA05251E
:102290002A430B4DA84202D00F4DA84238D14FF22D
:1022A000FF752A40CD894FF6FF7606EA05252A43B9
:1022B0004FF6FF352A408D8806EA05252A4319E0A6
:1022C000000001400004004000080040000C0040F5
:1022D0000010004000140040000401400040014094
:1022E000004401400048014000180040001C00402C
:1022F000002000404EF6FF752B404DF6FF752B4039
:102300000D8A06EA05152B434D8A06EA05152B436F
:10231000838084838D68C563028470BD70B500229C
:1023200000230024058C4EF6FF7635400584038C8F
:102330008488828B48F6FF752A404FF6FF452A4075
:102340000D884FF6FF7606EA05252A434DF6FF7500
:102350002B408D8906EA05352B434D8806EA053565
:102360002B43FE4DA84202D0FD4DA84208D14BF6AA
:10237000FF752C400D8A4FF6FF7606EA85152C4333
:10238000848082838D680564038470BD0021018090
:102390004180818081608181C18101824182704759
:1023A00070B50346002000241846183001258D40E2
:1023B000ACB21D8CA5431D8409B108290AD100EBDC
:1023C000610005684FF68F76354005600568154356
:1023D00005600FE00D1FC5F34E052844056848F65B
:1023E000FF763540056005684FF6FF7606EA02265F
:1023F0003543056070BD4163704781637047C163B9
:102400007047016470470A460021018B4FF68F73B5
:1024100019401143018370470A460021018B48F699
:10242000FF7319404FF6FF7303EA02231943018338
:1024300070470A460021818B4FF68F731940114374
:10244000818370470A460021818B48F6FF7319404B
:102450004FF6FF7303EA02231943818370470A464C
:102460000021018B4FF6F773194011430183704728
:102470000A460021018B4FF2FF7319404FF6FF739C
:1024800003EA02231943018370470A460021818B26
:102490004FF6F77319401143818370470A460021B4
:1024A000818B4FF2FF7319404FF6FF7303EA02234B
:1024B0001943818370470A460021018B4FF6FB7355
:1024C00019401143018370470A460021018B4FF6E2
:1024D000FF3319404FF6FF7303EA022319430183C8
:1024E00070470A460021818B4FF6FB731940114358
:1024F000818370470A460021818B4FF6FF331940D4
:102500004FF6FF7303EA02231943818370470A469B
:102510000021018B4FF67F731940114301837047EF
:102520000A460021018BC1F30E014FF6FF7303EA47
:1025300002231943018370470A460021818B4FF61D
:102540007F7319401143818370470A460021818BB4
:10255000C1F30E014FF6FF7303EA0223194381838F
:1025600070470A460021018C4FF6FD731940114354
:10257000018470470A460021018C4FF6F773194019
:102580001143018470470A460021018C4FF6DF7326
:1025900019404FF6FF7303EA021319430184704791
:1025A0000A460021018C4FF67F7319404FF6FF73E6
:1025B00003EA02131943018470470A460021018C83
:1025C0004FF6FF5319404FF6FF7303EA02231943F6
:1025D000018470470A460021018C4FF2FF731940B5
:1025E0004FF6FF7303EA02231943018470470A463A
:1025F0000021018C4DF6FF7319404FF6FF7303EA7B
:10260000023319430184704730B5002301248C4004
:10261000A3B2048C9C430484048C02FA01F5ADB28D
:102620002C43048430BD30B5002304248C40A3B275
:10263000048C9C430484048C02FA01F5ADB22C4353
:10264000048430BD828B4FF2FF331A408283828B29
:102650004FF6FF7303EA01231A4382837047F0B5F4
:102660000C461546002100220026078C4EF6FF7C02
:1026700007EA0C070784818B028C4FF6FF7707EA85
:10268000043640F6FF4739404FF6FF7707EA052743
:1026900039434FF6FF7707EA0337394345F6FF77AB
:1026A0003A4046F480573A4381830284F0BD828BDE
:1026B0004FF6F3731A408283828B0A4382837047FA
:1026C000F0B50C461546002100220026078C4FF677
:1026D000FF6C07EA0C070784818B028C4FF6FF77AB
:1026E00007EA04264FF60C7739404FF6FF7707EAE2
:1026F00003172F4339434FF2FF573A4046F4807790
:102700003A4381830284F0BD028B4FF2FF331A40BB
:102710000283028B4FF6FF7303EA01231A430283FD
:102720007047F0B50C461546002100220026078CA4
:102730004FF6EF7C07EA0C070784018B028C4FF6FB
:10274000FF7707EA041640F6FF4739404FF6FF7758
:1027500007EA033739434FF6FF7703E000000140F3
:102760000004014007EA052739434FF65F773A40F6
:1027700046F010073A4301830284F0BD028B4FF606
:10278000F3731A400283028B0A4302837047F0B549
:102790000C46154600210022068C4FF6FE773E407F
:1027A0000684018B028C4FF60C7631407E1C06EAC3
:1027B00003162E4331434FF6F576324044F00106BE
:1027C000324301830284F0BD70B505460C46208873
:1027D00050B92389A28861882846FFF7D8FFE1888D
:1027E0002846FFF7CBFF25E0208804280AD123895B
:1027F000A28861882846FFF794FFE1882846FFF702
:1028000083FF17E0208808280AD12389A2886188DD
:102810002846FFF755FFE1882846FFF748FF09E003
:102820002389A28861882846FFF719FFE188284696
:10283000FFF708FF70BD00210180418001218180E8
:102840000021C180018170472DE9F04105460C4609
:1028500000260127608808B9022600E00026A0882B
:10286000012801D1022700E001272088A0B923898F
:10287000A28861882846FFF78AFFE1882846FFF78B
:102880007DFF23893A4631462846FFF74AFFE18813
:102890002846FFF739FF13E02389A288618828467C
:1028A000FFF73FFFE1882846FFF72EFF23893A46CE
:1028B00031462846FFF76BFFE1882846FFF75EFFA9
:1028C000BDE8F0810146486B70470146886B704750
:1028D0000146C86B70470146086C70470A884B88F0
:1028E0001A438B881A43CB881A430B891A434B89A6
:1028F0001A438B891A43A0F84420704700210180B5
:1029000041808180C180018141818181704731B1E5
:10291000B0F8442042F40042A0F8442005E0B0F8AA
:102920004420C2F30E02A0F84420704721B18288EF
:1029300042F00402828004E082884FF6FB731A4062
:102940008280704721B1828842F00102828004E0D7
:1029500082884FF6FE731A40828070471AB18389CD
:102960000B43838102E083898B438381704781829B
:10297000704702460020138A0B4201D0012000E07C
:1029800000207047CA430282704730B502460020DB
:1029900000230024158A05EA0103958905EA01044C
:1029A00013B10CB1012000E0002030BDCA43028207
:1029B000704741EA0203A0F8483070471AB1838992
:1029C0000B43838102E083898B438381704721B16C
:1029D000828842F00802828004E082884FF6F77312
:1029E0001A408280704701894FF6F87211400181C8
:1029F00070470A46002101894FF68F731940114331
:102A00000181704730B504460D4629462046FFF740
:102A1000F0FF208940F00700208130BD2DE9F04112
:102A200004460D4616461F46602D06D13B46012240
:102A300031462046FFF775FE05E03B460122314650
:102A40002046FFF7A4FE29462046FFF7D2FF208943
:102A500040F007002081BDE8F08130B50C46002130
:102A60000189C9B24FF6FF7505EA032515432543D1
:102A70002943018130BD2DE9F04105460E46174638
:102A80009846002443463A4631462846FFF7E5FF7C
:102A90002C894FF6F870044044F007044FF68F700D
:102AA000044044F070042C81BDE8F081F0B5044688
:102AB0000D4616461F463B46324629462046FFF73E
:102AC000CCFF208940F480402081F0BD82884FF601
:102AD0008F731A40828082880A43828070470289FD
:102AE0004FF6F8731A40028102890A430281704747
:102AF00002894FF67F731A40028102890A430281DC
:102B00007047F0B50C4615461E46002100220023F2
:102B10000189028B038C4FF6F877394021434FF639
:102B2000FC473A4040F201173A434FF6DD773B400D
:102B30004FF6FF7707EA06172F433B4301810283D5
:102B40000384F0BD21B1828842F08002828004E0DB
:102B500082884FF67F731A4082807047A0F8501029
:102B60007047000010B50446F748844208D101219F
:102B70001020FFF713F900211020FFF70FF93EE0B6
:102B8000F248844209D101214804FFF7F6F80021F8
:102B90004FF40030FFF7F1F831E0ED48844209D1FD
:102BA00001218804FFF7E9F800214FF48020FFF7A6
:102BB000E4F824E0E748844209D10121C804FFF782
:102BC000DCF800214FF40020FFF7D7F817E0E248C7
:102BD000844209D101210805FFF7CFF800214FF405
:102BE0008010FFF7CAF80AE0DC48844207D10121CF
:102BF0002020FFF7D3F800212020FFF7CFF810BDE9
:102C00002DE9FF4705460E460024A14600BFA04619
:102C1000B08900B100BF2C8A24F44054F0880443EA
:102C20002C82AC8941F20C608443B088318908431E
:102C3000718908430443AC81AC8A24F44074B089A0
:102C40000443AC826846FEF768FFBF48854202D065
:102C5000C248854202D1DDF80C9001E0DDF8089011
:102C6000A88910F4004F08D009EBC90000EB091047
:102C700031684900B0FBF1F707E009EBC90000EB50
:102C8000091031688900B0FBF1F76420B7FBF0F060
:102C900004012009642101FB1078A88910F4004F79
:102CA00008D0322000EBC800B0FBF1F000F00700C4
:102CB000044308E0322000EB08106421B0FBF1F07F
:102CC00000F00F0004432C81BDE8FF874FF416513C
:102CD000016000218180C18001810C21418100219E
:102CE0008181704710B502460020108A20F4706080
:102CF0000B884C8823438C882343CC882343184378
:102D0000108210BD0021018041808180C180704708
:102D100021B1828942F40052828104E082894DF619
:102D2000FF731A4082817047028B02F47F42028354
:102D3000028B0A430283704721B1828942F4004228
:102D4000828103E08289C2F30E028281704721B141
:102D5000828A42F40062828204E0828A4FF2FF7328
:102D60001A4082827047C1F3080282807047014690
:102D70008888C0F308007047028A4FF6F0731A4043
:102D80000282028A0A430282704721B1828942F09C
:102D90000202828104E082894FF6FD731A4082812B
:102DA000704782894FF2FF731A40828182890A43F9
:102DB00082817047028A4FF6DF731A400282028ACC
:102DC0000A430282704721B1028A42F480420282A1
:102DD00004E0028A4BF6FF731A4002827047818931
:102DE00041F001018181704721B1828A42F00802DD
:102DF000828204E0828A4FF6F7731A40828270471B
:102E0000028BD2B20283028B42EA01220283704714
:102E100021B1828A42F02002828204E0828A4FF647
:102E2000DF731A408282704721B1828A42F0100219
:102E3000828204E0828A4FF6EF731A4082827047E2
:102E4000828A4FF6FB731A408282828A0A43828208
:102E5000704721B1828A42F00202828204E0828AB3
:102E60004FF6FD731A40828270471AB1838A0B4372
:102E7000838202E0838A8B4383827047F0B50346E6
:102E80000024002600250020A1F510676A3F00D12C
:102E900000BF1846C1F3421401F01F06012707FACC
:102EA00006F5012C01D10C3004E0022C01D11030C8
:102EB00000E014301AB107682F43076002E007688A
:102EC000AF430760F0BD02460020B1F5007F00D19E
:102ED00000BF13880B4201D0012000E000207047A2
:102EE00001F40072B2F5007F00D100BFCA43028036
:102EF000704770B502460024002300250020A1F58C
:102F000010666A3E00D100BFC1F3421501F01F03F5
:102F1000012606FA03F3012D02D19689334006E01B
:102F2000022D02D1168A334001E0968A33400C12FA
:102F3000012606FA04F41688344013B10CB10120BE
:102F400000E0002070BD000000100140004400407F
:102F500000480040004C0040005000400014014078
:102F600010B500220023A1F510646A3C00D100BF17
:102F70000A1201249440A3B2DC43048010BD000077
:102F800000B585B001210F20FEF78FFE012107203B
:102F9000FEF758FE0720039002208DF81000032052
:102FA0008DF8110000208DF812008DF8130003A990
:102FB000C248FEF701FC40F6C850039003A9C04880
:102FC000FEF7FAFB4FF4E070039003A9BD48FEF74B
:102FD000F3FB02220021B948FEF779FC022201210D
:102FE000B648FEF774FC02221146B448FEF76FFCA7
:102FF00001220321B248FEF76AFC01220A21B048EF
:10300000FEF765FC01220B21AD48FEF760FC0222B1
:103010000621AC48FEF75BFC02220721A948FEF717
:1030200056FC02220821A748FEF751FC0222062185
:10303000A348FEF74CFC02220721A148FEF747FCFB
:10304000022208219E48FEF742FC4FF6FF700190D5
:103050001820ADF800000020ADF80800ADF802001F
:1030600069469948FEF7D9FF69464FF08040FEF760
:10307000D4FF69469548FEF7D0FF69469448FEF7AD
:10308000CCFF05B000BD00B585B06020ADF80000F4
:103090000120ADF802000020ADF80C0041F2BA307A
:1030A000029069468848FFF74DF808218648FFF7E7
:1030B000D6F941F2BA30029069468348FFF77BF8AF
:1030C00008218148FFF7D4F941F22C40029069466B
:1030D0007D48FFF7BDF808217B48FFF7D6F90121AD
:1030E0007948FFF705F801217748FFF71FF801211C
:1030F0007548FFF70CFC41F2BA3002906946400770
:10310000FFF759F80821C806FFF7B2F941F2FC2091
:10311000029069464FF08040FFF79AF80821C806F0
:10312000FFF7B3F941F22C40029069464FF080401E
:10313000FFF7F4F80821C806FFF7B0F90121880766
:10314000FEF7D6FF01218807FEF7F0FF012188076F
:10315000FFF7DDFB41F22230029069465B48FEF743
:10316000F1FF08215948FFF77AF941F29E40029099
:1031700069465648FFF71FF808215448FFF778F9C9
:1031800041F21050029069465048FFF761F808215B
:103190004E48FFF77AF901214C48FEF7A9FF0121BB
:1031A0004A48FEF7C3FF01214848FFF7B0FB41F250
:1031B000BA30029069464648FEF7C4FF08214448E9
:1031C000FFF74DF941F24830029069464048FEF75A
:1031D000F2FF08213E48FFF74BF941F252400290BE
:1031E00069463B48FFF734F808213948FFF74DF9A5
:1031F00001213748FEF77CFF01213548FEF796FF95
:1032000001213348FFF783FB05B000BD00B587B04F
:1032100001210820FEF749FD01210846FEF712FDB5
:10322000022005908DF8180003208DF81900002069
:103230008DF81A0001208DF81B0005A91F48FEF724
:10324000BBFA022201211D48FEF741FB0420ADF824
:1032500008000020ADF80A000120ADF80C000020A5
:10326000ADF80E00ADF8100002A91748FFF7ECFA10
:1032700060211548FFF7BDFB04211348FFF72FFC21
:1032800080211148FFF734FC01210F48FEF74EFF63
:10329000012204210C48FFF761FB32208DF8040065
:1032A00000208DF8050001208DF806008DF807003C
:1032B00001A8FDF7D4FF07B000BD000000000240E8
:1032C0000004024000080240000C004000040040DE
:1032D000000800402DE9F04196B004460D46164620
:1032E0001F46DDF8708001210846FEF7ABFC012186
:1032F0001020FEF7EBFC01218805FEF7A3FC072256
:1033000009217048FEF7E3FA07220A216D48FEF70B
:10331000DEFA4FF4C060109002208DF844000320C4
:103320008DF8450000208DF8460001208DF84700FB
:1033300010A96448FEF740FA01216348FFF7FCFC3E
:10334000CDF848800020ADF84C00ADF84E00ADF847
:103350005000ADF854000C20ADF8520012A95A48A4
:10336000FFF74EFC5948FDF7E7FF58487838FDF75E
:10337000E3FF00200C900D900E9009904FF48060B8
:10338000079000200A905048001D029000200F90E6
:10339000089006904FF400300B9005958002019044
:1033A00040200490039401A94848FEF767F8059768
:1033B0004FF00060019000200490039601A943485B
:1033C0007838FEF75BF801213F48FFF7A1FC16B003
:1033D000BDE8F08108B54FF4A060FDF73BFF252064
:1033E0008DF8000000208DF801008DF8020001200A
:1033F0008DF803006846FDF732FF012240F22551A7
:103400003148FFF73BFD01212F48FFF781FC08BD44
:1034100010B501212D48FEF76BF8012280212A48C2
:10342000FFF723FD00BF40212748FFF74CFD002890
:10343000F9D000BF4FF020512448FEF7B6F800281D
:10344000F8D000212148FEF753F84FF020511F48D3
:10345000FEF7C6F840211C48FFF742FD10BD73B5CA
:103460002DED020B04460E466D46FF202070072E00
:103470001AD2DFE806F004070A0D10131600F02038
:10348000607011E0F12060700EE0F22060700BE0DF
:10349000F320607008E0F420607005E0F5206070B3
:1034A00002E0F620607000BF00BF2878A070687846
:1034B000E070A8782071E8786071FE20A071FFF7B5
:1034C000A7FF7FBD0000024000100140B864024029
:1034D0000CB50020019000907648006840F48030E0
:1034E0007449086000BF7348006800F40030009021
:1034F0000198401C0190009818B90198B0F5C06F70
:10350000F1D16C48006810F4003F02D00120009017
:1035100001E0002000900098012845D16548403026
:10352000006840F08050634940310860624800689C
:1035300040F44040604908605E48083000685D49DA
:10354000083108600846006840F4004008600846FA
:10355000006840F4A05008605848091F0860081F20
:10356000006840F08070091F086000BF5148006883
:1035700010F0007FFAD040F20560514908604D48D4
:103580000830006820F003004A4908310860084606
:10359000006840F00200086000BF4648083000683C
:1035A00000F00C000828F8D10CBD10B541480068A7
:1035B00040F001003F49086000203E4908310860A2
:1035C0003C4800683F4908403A4908603E48091DA8
:1035D0000860081F006820F48020091F0860002090
:1035E00034490C310860FFF773FF4FF00060374932
:1035F000086036488030006840F4700033498031FC
:10360000086010BD70B500200022022300240221B2
:10361000284D08352D6805F00C0020B1042806D08F
:10362000082834D107E02A4D2A4E356033E02A4D70
:10363000284E35602FE01F4D2D1D2D68C5F3805499
:103640001C4D2D1D2D6805F03F0154B1224DB5FBD9
:10365000F1F5184E361D3668C6F3881605FB06F2DE
:1036600009E01B4DB5FBF1F5124E361D3668C6F369
:10367000881605FB06F20F4D2D1D2D68C5F301457B
:103680006D1C6B00B2FBF3F5124E356003E0104D7C
:10369000104E356000BF00BF064D08352D68C5F3DC
:1036A00003150E4E705D0B4D2D68C540094E3560FB
:1036B00070BD000000380240007000400854400710
:1036C000003C0240FFFFF6FE1030002408ED00E051
:1036D0000024F4008800002000127A008C000020F2
:1036E000064C074D06E0E06840F0010394E807004F
:1036F00098471034AC42F6D3FCF74AFD2437000853
:103700004437000802E008C8121F08C1002AFAD195
:1037100070477047002001E001C1121F002AFBD151
:103720007047000044370008000000209C000000A3
:1037300004370008E03700089C0000203C0400002B
:103740001437000800000000000000000000000026
:103750000000000000000000000000000000000069
:103760000000000000000000000000000000000059
:103770000000000000000000000000000000000049
:103780000000000000000000000000000000000039
:103790000000000000000000000000000000000029
:1037A0000000000000000000000000000000000019
:1037B0000000000000000000000000000000000009
:1037C000010203040102030406070809007A030A40
:1037D00000000000000000000102030406070809C1
:040000050800018965
:00000001FF
